{
  "contractName": "CampaignFactory",
  "abi": [
    {
      "inputs": [
        {
          "internalType": "uint256",
          "name": "minimum",
          "type": "uint256"
        },
        {
          "internalType": "string",
          "name": "name",
          "type": "string"
        },
        {
          "internalType": "string",
          "name": "descriptionCampain",
          "type": "string"
        }
      ],
      "name": "createCampaign",
      "outputs": [],
      "stateMutability": "nonpayable",
      "type": "function"
    },
    {
      "inputs": [],
      "name": "getDeployedCampaigns",
      "outputs": [
        {
          "internalType": "contract Campaign[]",
          "name": "",
          "type": "address[]"
        }
      ],
      "stateMutability": "view",
      "type": "function"
    }
  ],
  "bytecode": "0x608060405234801561001057600080fd5b506117a9806100206000396000f3fe60806040523480156200001157600080fd5b50600436106200003a5760003560e01c80634acb9d4f146200003f578063fad4dee31462000061575b600080fd5b6200004962000081565b604051620000589190620003d4565b60405180910390f35b6200007f600480360381019062000079919062000254565b62000111565b005b606060008054806020026020016040519081016040528092919081815260200182805480156200010757602002820191906000526020600020905b8160009054906101000a900473ffffffffffffffffffffffffffffffffffffffff1673ffffffffffffffffffffffffffffffffffffffff1681526020019060010190808311620000bc575b5050505050905090565b6000833384846040516200012590620001bd565b620001349493929190620003f8565b604051809103906000f08015801562000151573d6000803e3d6000fd5b5090506000819080600181540180825580915050600190039060005260206000200160009091909190916101000a81548173ffffffffffffffffffffffffffffffffffffffff021916908373ffffffffffffffffffffffffffffffffffffffff16021790555050505050565b611131806200064383390190565b6000620001e2620001dc846200047c565b62000453565b905082815260208101848484011115620001fb57600080fd5b620002088482856200056d565b509392505050565b600082601f8301126200022257600080fd5b813562000234848260208601620001cb565b91505092915050565b6000813590506200024e8162000628565b92915050565b6000806000606084860312156200026a57600080fd5b60006200027a868287016200023d565b935050602084013567ffffffffffffffff8111156200029857600080fd5b620002a68682870162000210565b925050604084013567ffffffffffffffff811115620002c457600080fd5b620002d28682870162000210565b9150509250925092565b6000620002ea838362000371565b60208301905092915050565b620003018162000507565b82525050565b60006200031482620004c2565b620003208185620004e5565b93506200032d83620004b2565b8060005b8381101562000364578151620003488882620002dc565b97506200035583620004d8565b92505060018101905062000331565b5085935050505092915050565b6200037c8162000545565b82525050565b60006200038f82620004cd565b6200039b8185620004f6565b9350620003ad8185602086016200057c565b620003b88162000617565b840191505092915050565b620003ce816200053b565b82525050565b60006020820190508181036000830152620003f0818462000307565b905092915050565b60006080820190506200040f6000830187620003c3565b6200041e6020830186620002f6565b818103604083015262000432818562000382565b9050818103606083015262000448818462000382565b905095945050505050565b60006200045f62000472565b90506200046d8282620005b2565b919050565b6000604051905090565b600067ffffffffffffffff8211156200049a5762000499620005e8565b5b620004a58262000617565b9050602081019050919050565b6000819050602082019050919050565b600081519050919050565b600081519050919050565b6000602082019050919050565b600082825260208201905092915050565b600082825260208201905092915050565b600062000514826200051b565b9050919050565b600073ffffffffffffffffffffffffffffffffffffffff82169050919050565b6000819050919050565b6000620005528262000559565b9050919050565b600062000566826200051b565b9050919050565b82818337600083830152505050565b60005b838110156200059c5780820151818401526020810190506200057f565b83811115620005ac576000848401525b50505050565b620005bd8262000617565b810181811067ffffffffffffffff82111715620005df57620005de620005e8565b5b80604052505050565b7f4e487b7100000000000000000000000000000000000000000000000000000000600052604160045260246000fd5b6000601f19601f8301169050919050565b62000633816200053b565b81146200063f57600080fd5b5056fe60806040523480156200001157600080fd5b50604051620011313803806200113183398181016040528101906200003791906200020a565b826000806101000a81548173ffffffffffffffffffffffffffffffffffffffff021916908373ffffffffffffffffffffffffffffffffffffffff16021790555083600381905550806001908051906020019062000096929190620000ba565b508160029080519060200190620000af929190620000ba565b50505050506200048a565b828054620000c8906200037b565b90600052602060002090601f016020900481019282620000ec576000855562000138565b82601f106200010757805160ff191683800117855562000138565b8280016001018555821562000138579182015b82811115620001375782518255916020019190600101906200011a565b5b5090506200014791906200014b565b5090565b5b80821115620001665760008160009055506001016200014c565b5090565b6000620001816200017b84620002d1565b620002a8565b9050828152602081018484840111156200019a57600080fd5b620001a784828562000345565b509392505050565b600081519050620001c08162000456565b92915050565b600082601f830112620001d857600080fd5b8151620001ea8482602086016200016a565b91505092915050565b600081519050620002048162000470565b92915050565b600080600080608085870312156200022157600080fd5b60006200023187828801620001f3565b94505060206200024487828801620001af565b935050604085015167ffffffffffffffff8111156200026257600080fd5b6200027087828801620001c6565b925050606085015167ffffffffffffffff8111156200028e57600080fd5b6200029c87828801620001c6565b91505092959194509250565b6000620002b4620002c7565b9050620002c28282620003b1565b919050565b6000604051905090565b600067ffffffffffffffff821115620002ef57620002ee62000416565b5b620002fa8262000445565b9050602081019050919050565b600062000314826200031b565b9050919050565b600073ffffffffffffffffffffffffffffffffffffffff82169050919050565b6000819050919050565b60005b838110156200036557808201518184015260208101905062000348565b8381111562000375576000848401525b50505050565b600060028204905060018216806200039457607f821691505b60208210811415620003ab57620003aa620003e7565b5b50919050565b620003bc8262000445565b810181811067ffffffffffffffff82111715620003de57620003dd62000416565b5b80604052505050565b7f4e487b7100000000000000000000000000000000000000000000000000000000600052602260045260246000fd5b7f4e487b7100000000000000000000000000000000000000000000000000000000600052604160045260246000fd5b6000601f19601f8301169050919050565b620004618162000307565b81146200046d57600080fd5b50565b6200047b816200033b565b81146200048757600080fd5b50565b610c97806200049a6000396000f3fe6080604052600436106100915760003560e01c806382fde0931161005957806382fde093146101815780638a9cfd55146101ac578063937e09b1146101d5578063d7bb99ba14610200578063d7d1bbdb1461020a57610091565b806303441006146100965780630a144391146100bf5780633fad1834146100fc5780634051ddac14610127578063481c6a7514610156575b600080fd5b3480156100a257600080fd5b506100bd60048036038101906100b891906108b9565b610233565b005b3480156100cb57600080fd5b506100e660048036038101906100e19190610829565b61036c565b6040516100f3919061092a565b60405180910390f35b34801561010857600080fd5b5061011161038c565b60405161011e9190610945565b60405180910390f35b34801561013357600080fd5b5061013c610396565b60405161014d959493929190610960565b60405180910390f35b34801561016257600080fd5b5061016b6103da565b604051610178919061090f565b60405180910390f35b34801561018d57600080fd5b506101966103fe565b6040516101a39190610945565b60405180910390f35b3480156101b857600080fd5b506101d360048036038101906101ce9190610852565b610404565b005b3480156101e157600080fd5b506101ea61051b565b6040516101f79190610945565b60405180910390f35b610208610521565b005b34801561021657600080fd5b50610231600480360381019061022c91906108b9565b6105a1565b005b60008054906101000a900473ffffffffffffffffffffffffffffffffffffffff1673ffffffffffffffffffffffffffffffffffffffff163373ffffffffffffffffffffffffffffffffffffffff161461028b57600080fd5b60006007600083815260200190815260200160002090508060020160149054906101000a900460ff16156102be57600080fd5b60026005546102cd9190610a09565b8160040154116102dc57600080fd5b8060020160009054906101000a900473ffffffffffffffffffffffffffffffffffffffff1673ffffffffffffffffffffffffffffffffffffffff166108fc82600101549081150290604051600060405180830381858888f1935050505015801561034a573d6000803e3d6000fd5b5060018160020160146101000a81548160ff0219169083151502179055505050565b60046020528060005260406000206000915054906101000a900460ff1681565b6000600654905090565b60008060008060006003544760065460055460008054906101000a900473ffffffffffffffffffffffffffffffffffffffff16945094509450945094509091929394565b60008054906101000a900473ffffffffffffffffffffffffffffffffffffffff1681565b60055481565b60008054906101000a900473ffffffffffffffffffffffffffffffffffffffff1673ffffffffffffffffffffffffffffffffffffffff163373ffffffffffffffffffffffffffffffffffffffff161461045c57600080fd5b6000600760006006600081548092919061047590610b06565b9190505581526020019081526020016000209050838160000190805190602001906104a19291906106df565b50828160010181905550818160020160006101000a81548173ffffffffffffffffffffffffffffffffffffffff021916908373ffffffffffffffffffffffffffffffffffffffff16021790555060008160020160146101000a81548160ff0219169083151502179055506000816004018190555050505050565b60035481565b600354341161052f57600080fd5b6001600460003373ffffffffffffffffffffffffffffffffffffffff1673ffffffffffffffffffffffffffffffffffffffff16815260200190815260200160002060006101000a81548160ff0219169083151502179055506005600081548092919061059a90610b06565b9190505550565b6000600760008381526020019081526020016000209050600460003373ffffffffffffffffffffffffffffffffffffffff1673ffffffffffffffffffffffffffffffffffffffff16815260200190815260200160002060009054906101000a900460ff1661060e57600080fd5b8060030160003373ffffffffffffffffffffffffffffffffffffffff1673ffffffffffffffffffffffffffffffffffffffff16815260200190815260200160002060009054906101000a900460ff161561066757600080fd5b60018160030160003373ffffffffffffffffffffffffffffffffffffffff1673ffffffffffffffffffffffffffffffffffffffff16815260200190815260200160002060006101000a81548160ff0219169083151502179055508060040160008154809291906106d690610b06565b91905055505050565b8280546106eb90610aa3565b90600052602060002090601f01602090048101928261070d5760008555610754565b82601f1061072657805160ff1916838001178555610754565b82800160010185558215610754579182015b82811115610753578251825591602001919060010190610738565b5b5090506107619190610765565b5090565b5b8082111561077e576000816000905550600101610766565b5090565b6000610795610790846109d8565b6109b3565b9050828152602081018484840111156107ad57600080fd5b6107b8848285610a94565b509392505050565b6000813590506107cf81610c1c565b92915050565b6000813590506107e481610c33565b92915050565b600082601f8301126107fb57600080fd5b813561080b848260208601610782565b91505092915050565b60008135905061082381610c4a565b92915050565b60006020828403121561083b57600080fd5b6000610849848285016107c0565b91505092915050565b60008060006060848603121561086757600080fd5b600084013567ffffffffffffffff81111561088157600080fd5b61088d868287016107ea565b935050602061089e86828701610814565b92505060406108af868287016107d5565b9150509250925092565b6000602082840312156108cb57600080fd5b60006108d984828501610814565b91505092915050565b6108eb81610a3a565b82525050565b6108fa81610a5e565b82525050565b61090981610a8a565b82525050565b600060208201905061092460008301846108e2565b92915050565b600060208201905061093f60008301846108f1565b92915050565b600060208201905061095a6000830184610900565b92915050565b600060a0820190506109756000830188610900565b6109826020830187610900565b61098f6040830186610900565b61099c6060830185610900565b6109a960808301846108e2565b9695505050505050565b60006109bd6109ce565b90506109c98282610ad5565b919050565b6000604051905090565b600067ffffffffffffffff8211156109f3576109f2610bdc565b5b6109fc82610c0b565b9050602081019050919050565b6000610a1482610a8a565b9150610a1f83610a8a565b925082610a2f57610a2e610b7e565b5b828204905092915050565b6000610a4582610a6a565b9050919050565b6000610a5782610a6a565b9050919050565b60008115159050919050565b600073ffffffffffffffffffffffffffffffffffffffff82169050919050565b6000819050919050565b82818337600083830152505050565b60006002820490506001821680610abb57607f821691505b60208210811415610acf57610ace610bad565b5b50919050565b610ade82610c0b565b810181811067ffffffffffffffff82111715610afd57610afc610bdc565b5b80604052505050565b6000610b1182610a8a565b91507fffffffffffffffffffffffffffffffffffffffffffffffffffffffffffffffff821415610b4457610b43610b4f565b5b600182019050919050565b7f4e487b7100000000000000000000000000000000000000000000000000000000600052601160045260246000fd5b7f4e487b7100000000000000000000000000000000000000000000000000000000600052601260045260246000fd5b7f4e487b7100000000000000000000000000000000000000000000000000000000600052602260045260246000fd5b7f4e487b7100000000000000000000000000000000000000000000000000000000600052604160045260246000fd5b6000601f19601f8301169050919050565b610c2581610a3a565b8114610c3057600080fd5b50565b610c3c81610a4c565b8114610c4757600080fd5b50565b610c5381610a8a565b8114610c5e57600080fd5b5056fea2646970667358221220c5246bb1334c858349ca295ae654473bfb31bcff2793e84aa9e9edaf9979c75e64736f6c63430008040033a264697066735822122002232419a39bf2ce92996d250819bd66a07b43a74ad41f4914347cc58a740cff64736f6c63430008040033",
  "immutableReferences": {},
  "source": "pragma solidity >=0.4.17;\n\ncontract Campaign{\n    struct Request{\n        string description;\n        uint value;\n        address payable recipient;\n        bool complete;\n        mapping(address=>bool) approvals;\n        uint approvalCount;\n    }\n    \n    address public manager;\n    string descriptionCampain;\n    string campaignName;\n    uint public minimumContribution;\n    mapping(address=>bool) public approvers;\n    uint public approversCount;\n    uint numRequests;\n    mapping (uint => Request) requests;\n    \n    modifier restricted(){\n        require(msg.sender == manager);\n        _;\n    }\n    \n    constructor(uint minimum, address campaignCreator,string memory name, string memory descriptionCamp) public {\n        manager = campaignCreator;\n        minimumContribution = minimum;\n        descriptionCampain = descriptionCamp;\n        campaignName = name;\n    }\n    \n    function contribute() public payable{\n        require(msg.value > minimumContribution);\n        \n        approvers[msg.sender] = true;\n        \n        approversCount++;\n    }\n    \n    function createRequest (string memory description, uint value,\n            address payable recipient) public restricted{\n                Request storage r = requests[numRequests++];\n                r.description = description;\n                r.value = value;\n                r.recipient = recipient;\n                r.complete = false;\n                r.approvalCount = 0;\n    }\n    \n    function approveRequest(uint index) public{\n        Request storage request = requests[index];\n        \n        require(approvers[msg.sender]);\n        require(!request.approvals[msg.sender]);\n        \n        request.approvals[msg.sender] = true;\n        request.approvalCount++;\n    }\n    \n    function finalizeRequest(uint index) public restricted{\n        Request storage request = requests[index];\n        \n        require(!request.complete);\n        require(request.approvalCount > (approversCount/2));\n        \n        request.recipient.transfer(request.value);\n        request.complete = true;\n    }\n\n    function getSummary() public view returns(uint, uint, uint, uint, address){\n       return(\n            minimumContribution,\n            address(this).balance,\n            numRequests,\n            approversCount,\n            manager\n       );\n    }\n\n    function getRequestCount() public view returns(uint){\n        return numRequests;\n    }\n}\n\ncontract CampaignFactory{\n    Campaign[] deployedCampaigns;\n    \n    function createCampaign(uint minimum,string memory name, string memory descriptionCampain) public{\n            Campaign newCampaign = new Campaign(minimum, msg.sender,name, descriptionCampain);\n            deployedCampaigns.push(newCampaign);\n    }\n    \n    function getDeployedCampaigns() public view returns (Campaign[] memory){\n        return deployedCampaigns;\n    }\n}\n\n\n\n",
  "sourcePath": "/Users/140457/Documents/Study/CNM/final/CNM-DAN/ethereum/contracts/Campaign.sol",
  "compiler": {
    "name": "solc",
    "version": "0.8.4+commit.c7e474f2.Emscripten.clang"
  },
  "schemaVersion": "3.4.1",
  "updatedAt": "2021-06-06T09:46:58.693Z",
  "devdoc": {
    "kind": "dev",
    "methods": {},
    "version": 1
  },
  "userdoc": {
    "kind": "user",
    "methods": {},
    "version": 1
  }
}