{
  "contractName": "CampaignFactory",
  "abi": [
    {
      "inputs": [
        {
          "internalType": "uint256",
          "name": "minimum",
          "type": "uint256"
        }
      ],
      "name": "createCampaign",
      "outputs": [],
      "stateMutability": "nonpayable",
      "type": "function"
    },
    {
      "inputs": [],
      "name": "getDeployedCampaigns",
      "outputs": [
        {
          "internalType": "contract Campaign[]",
          "name": "",
          "type": "address[]"
        }
      ],
      "stateMutability": "view",
      "type": "function"
    }
  ],
  "bytecode": "0x608060405234801561001057600080fd5b506111d1806100206000396000f3fe608060405234801561001057600080fd5b50600436106100365760003560e01c80634acb9d4f1461003b578063a3303a7514610059575b600080fd5b610043610075565b6040516100509190610292565b60405180910390f35b610073600480360381019061006e91906101c6565b610103565b005b606060008054806020026020016040519081016040528092919081815260200182805480156100f957602002820191906000526020600020905b8160009054906101000a900473ffffffffffffffffffffffffffffffffffffffff1673ffffffffffffffffffffffffffffffffffffffff16815260200190600101908083116100af575b5050505050905090565b60008133604051610113906101a4565b61011e9291906102b4565b604051809103906000f08015801561013a573d6000803e3d6000fd5b5090506000819080600181540180825580915050600190039060005260206000200160009091909190916101000a81548173ffffffffffffffffffffffffffffffffffffffff021916908373ffffffffffffffffffffffffffffffffffffffff1602179055505050565b610e0e8061038e83390190565b6000813590506101c081610376565b92915050565b6000602082840312156101d857600080fd5b60006101e6848285016101b1565b91505092915050565b60006101fb8383610274565b60208301905092915050565b61021081610316565b82525050565b6000610221826102ed565b61022b8185610305565b9350610236836102dd565b8060005b8381101561026757815161024e88826101ef565b9750610259836102f8565b92505060018101905061023a565b5085935050505092915050565b61027d81610352565b82525050565b61028c81610348565b82525050565b600060208201905081810360008301526102ac8184610216565b905092915050565b60006040820190506102c96000830185610283565b6102d66020830184610207565b9392505050565b6000819050602082019050919050565b600081519050919050565b6000602082019050919050565b600082825260208201905092915050565b600061032182610328565b9050919050565b600073ffffffffffffffffffffffffffffffffffffffff82169050919050565b6000819050919050565b600061035d82610364565b9050919050565b600061036f82610328565b9050919050565b61037f81610348565b811461038a57600080fd5b5056fe60806040523480156200001157600080fd5b5060405162000e0e38038062000e0e8339818101604052810190620000379190620000b4565b806000806101000a81548173ffffffffffffffffffffffffffffffffffffffff021916908373ffffffffffffffffffffffffffffffffffffffff16021790555081600181905550505062000167565b600081519050620000978162000133565b92915050565b600081519050620000ae816200014d565b92915050565b60008060408385031215620000c857600080fd5b6000620000d8858286016200009d565b9250506020620000eb8582860162000086565b9150509250929050565b6000620001028262000109565b9050919050565b600073ffffffffffffffffffffffffffffffffffffffff82169050919050565b6000819050919050565b6200013e81620000f5565b81146200014a57600080fd5b50565b620001588162000129565b81146200016457600080fd5b50565b610c9780620001776000396000f3fe6080604052600436106100915760003560e01c806382fde0931161005957806382fde093146101815780638a9cfd55146101ac578063937e09b1146101d5578063d7bb99ba14610200578063d7d1bbdb1461020a57610091565b806303441006146100965780630a144391146100bf5780633fad1834146100fc5780634051ddac14610127578063481c6a7514610156575b600080fd5b3480156100a257600080fd5b506100bd60048036038101906100b891906108b9565b610233565b005b3480156100cb57600080fd5b506100e660048036038101906100e19190610829565b61036c565b6040516100f3919061092a565b60405180910390f35b34801561010857600080fd5b5061011161038c565b60405161011e9190610945565b60405180910390f35b34801561013357600080fd5b5061013c610396565b60405161014d959493929190610960565b60405180910390f35b34801561016257600080fd5b5061016b6103da565b604051610178919061090f565b60405180910390f35b34801561018d57600080fd5b506101966103fe565b6040516101a39190610945565b60405180910390f35b3480156101b857600080fd5b506101d360048036038101906101ce9190610852565b610404565b005b3480156101e157600080fd5b506101ea61051b565b6040516101f79190610945565b60405180910390f35b610208610521565b005b34801561021657600080fd5b50610231600480360381019061022c91906108b9565b6105a1565b005b60008054906101000a900473ffffffffffffffffffffffffffffffffffffffff1673ffffffffffffffffffffffffffffffffffffffff163373ffffffffffffffffffffffffffffffffffffffff161461028b57600080fd5b60006005600083815260200190815260200160002090508060020160149054906101000a900460ff16156102be57600080fd5b60026003546102cd9190610a09565b8160040154116102dc57600080fd5b8060020160009054906101000a900473ffffffffffffffffffffffffffffffffffffffff1673ffffffffffffffffffffffffffffffffffffffff166108fc82600101549081150290604051600060405180830381858888f1935050505015801561034a573d6000803e3d6000fd5b5060018160020160146101000a81548160ff0219169083151502179055505050565b60026020528060005260406000206000915054906101000a900460ff1681565b6000600454905090565b60008060008060006001544760045460035460008054906101000a900473ffffffffffffffffffffffffffffffffffffffff16945094509450945094509091929394565b60008054906101000a900473ffffffffffffffffffffffffffffffffffffffff1681565b60035481565b60008054906101000a900473ffffffffffffffffffffffffffffffffffffffff1673ffffffffffffffffffffffffffffffffffffffff163373ffffffffffffffffffffffffffffffffffffffff161461045c57600080fd5b6000600560006004600081548092919061047590610b06565b9190505581526020019081526020016000209050838160000190805190602001906104a19291906106df565b50828160010181905550818160020160006101000a81548173ffffffffffffffffffffffffffffffffffffffff021916908373ffffffffffffffffffffffffffffffffffffffff16021790555060008160020160146101000a81548160ff0219169083151502179055506000816004018190555050505050565b60015481565b600154341161052f57600080fd5b6001600260003373ffffffffffffffffffffffffffffffffffffffff1673ffffffffffffffffffffffffffffffffffffffff16815260200190815260200160002060006101000a81548160ff0219169083151502179055506003600081548092919061059a90610b06565b9190505550565b6000600560008381526020019081526020016000209050600260003373ffffffffffffffffffffffffffffffffffffffff1673ffffffffffffffffffffffffffffffffffffffff16815260200190815260200160002060009054906101000a900460ff1661060e57600080fd5b8060030160003373ffffffffffffffffffffffffffffffffffffffff1673ffffffffffffffffffffffffffffffffffffffff16815260200190815260200160002060009054906101000a900460ff161561066757600080fd5b60018160030160003373ffffffffffffffffffffffffffffffffffffffff1673ffffffffffffffffffffffffffffffffffffffff16815260200190815260200160002060006101000a81548160ff0219169083151502179055508060040160008154809291906106d690610b06565b91905055505050565b8280546106eb90610aa3565b90600052602060002090601f01602090048101928261070d5760008555610754565b82601f1061072657805160ff1916838001178555610754565b82800160010185558215610754579182015b82811115610753578251825591602001919060010190610738565b5b5090506107619190610765565b5090565b5b8082111561077e576000816000905550600101610766565b5090565b6000610795610790846109d8565b6109b3565b9050828152602081018484840111156107ad57600080fd5b6107b8848285610a94565b509392505050565b6000813590506107cf81610c1c565b92915050565b6000813590506107e481610c33565b92915050565b600082601f8301126107fb57600080fd5b813561080b848260208601610782565b91505092915050565b60008135905061082381610c4a565b92915050565b60006020828403121561083b57600080fd5b6000610849848285016107c0565b91505092915050565b60008060006060848603121561086757600080fd5b600084013567ffffffffffffffff81111561088157600080fd5b61088d868287016107ea565b935050602061089e86828701610814565b92505060406108af868287016107d5565b9150509250925092565b6000602082840312156108cb57600080fd5b60006108d984828501610814565b91505092915050565b6108eb81610a3a565b82525050565b6108fa81610a5e565b82525050565b61090981610a8a565b82525050565b600060208201905061092460008301846108e2565b92915050565b600060208201905061093f60008301846108f1565b92915050565b600060208201905061095a6000830184610900565b92915050565b600060a0820190506109756000830188610900565b6109826020830187610900565b61098f6040830186610900565b61099c6060830185610900565b6109a960808301846108e2565b9695505050505050565b60006109bd6109ce565b90506109c98282610ad5565b919050565b6000604051905090565b600067ffffffffffffffff8211156109f3576109f2610bdc565b5b6109fc82610c0b565b9050602081019050919050565b6000610a1482610a8a565b9150610a1f83610a8a565b925082610a2f57610a2e610b7e565b5b828204905092915050565b6000610a4582610a6a565b9050919050565b6000610a5782610a6a565b9050919050565b60008115159050919050565b600073ffffffffffffffffffffffffffffffffffffffff82169050919050565b6000819050919050565b82818337600083830152505050565b60006002820490506001821680610abb57607f821691505b60208210811415610acf57610ace610bad565b5b50919050565b610ade82610c0b565b810181811067ffffffffffffffff82111715610afd57610afc610bdc565b5b80604052505050565b6000610b1182610a8a565b91507fffffffffffffffffffffffffffffffffffffffffffffffffffffffffffffffff821415610b4457610b43610b4f565b5b600182019050919050565b7f4e487b7100000000000000000000000000000000000000000000000000000000600052601160045260246000fd5b7f4e487b7100000000000000000000000000000000000000000000000000000000600052601260045260246000fd5b7f4e487b7100000000000000000000000000000000000000000000000000000000600052602260045260246000fd5b7f4e487b7100000000000000000000000000000000000000000000000000000000600052604160045260246000fd5b6000601f19601f8301169050919050565b610c2581610a3a565b8114610c3057600080fd5b50565b610c3c81610a4c565b8114610c4757600080fd5b50565b610c5381610a8a565b8114610c5e57600080fd5b5056fea26469706673582212205df4f517dfa822389af47c188082d79a13d5cb0778723c099890ee03212c191b64736f6c63430008040033a2646970667358221220378079d1681c528782d205c12547a7effe5b96e17a5492a5c2e5c25f6e1f359f64736f6c63430008040033",
  "immutableReferences": {},
  "source": "pragma solidity >=0.4.17;\r\n\r\ncontract Campaign{\r\n    struct Request{\r\n        string description;\r\n        uint value;\r\n        address payable recipient;\r\n        bool complete;\r\n        mapping(address=>bool) approvals;\r\n        uint approvalCount;\r\n    }\r\n    \r\n    address public manager;\r\n    uint public minimumContribution;\r\n    mapping(address=>bool) public approvers;\r\n    uint public approversCount;\r\n    uint numRequests;\r\n    mapping (uint => Request) requests;\r\n    \r\n    modifier restricted(){\r\n        require(msg.sender == manager);\r\n        _;\r\n    }\r\n    \r\n    constructor(uint minimum, address campaignCreator) public {\r\n        manager = campaignCreator;\r\n        minimumContribution = minimum;\r\n    }\r\n    \r\n    function contribute() public payable{\r\n        require(msg.value > minimumContribution);\r\n        \r\n        approvers[msg.sender] = true;\r\n        \r\n        approversCount++;\r\n    }\r\n    \r\n    function createRequest (string memory description, uint value,\r\n            address payable recipient) public restricted{\r\n                Request storage r = requests[numRequests++];\r\n                r.description = description;\r\n                r.value = value;\r\n                r.recipient = recipient;\r\n                r.complete = false;\r\n                r.approvalCount = 0;\r\n    }\r\n    \r\n    function approveRequest(uint index) public{\r\n        Request storage request = requests[index];\r\n        \r\n        require(approvers[msg.sender]);\r\n        require(!request.approvals[msg.sender]);\r\n        \r\n        request.approvals[msg.sender] = true;\r\n        request.approvalCount++;\r\n    }\r\n    \r\n    function finalizeRequest(uint index) public restricted{\r\n        Request storage request = requests[index];\r\n        \r\n        require(!request.complete);\r\n        require(request.approvalCount > (approversCount/2));\r\n        \r\n        request.recipient.transfer(request.value);\r\n        request.complete = true;\r\n    }\r\n\r\n    function getSummary() public view returns(uint, uint, uint, uint, address){\r\n       return(\r\n            minimumContribution,\r\n            address(this).balance,\r\n            numRequests,\r\n            approversCount,\r\n            manager\r\n       );\r\n    }\r\n\r\n    function getRequestCount() public view returns(uint){\r\n        return numRequests;\r\n    }\r\n}\r\n\r\ncontract CampaignFactory{\r\n    Campaign[] deployedCampaigns;\r\n    \r\n    function createCampaign(uint minimum) public{\r\n            Campaign newCampaign = new Campaign(minimum, msg.sender);\r\n            deployedCampaigns.push(newCampaign);\r\n    }\r\n    \r\n    function getDeployedCampaigns() public view returns (Campaign[] memory){\r\n        return deployedCampaigns;\r\n    }\r\n}\r\n\r\n\r\n\r\n",
  "sourcePath": "C:/Users/DELL/OneDrive/My tnh/nextjs-material-dashboard-master/ethereum/contracts/Campaign.sol",
  "compiler": {
    "name": "solc",
    "version": "0.8.4+commit.c7e474f2.Emscripten.clang"
  },
  "schemaVersion": "3.4.1",
  "updatedAt": "2021-06-05T18:19:27.450Z",
  "devdoc": {
    "kind": "dev",
    "methods": {},
    "version": 1
  },
  "userdoc": {
    "kind": "user",
    "methods": {},
    "version": 1
  }
}